:020000040000FA
:1000000070040020ED010000130200001502000042
:1000100000000000000000000000000000000000E0
:1000200000000000000000000000000017020000B7
:100030000000000000000000190200001B02000088
:100040001D020000930900001D0200001D020000B7
:100050001D0200001D0200001D0200001D02000024
:10006000B5060000DB060000EF0600001D020000E0
:100070001D0200001D0200001D0200001D02000004
:100080001D0200001D0200001D0200001D020000F4
:100090001D0200001D0200001D0200001D020000E4
:1000A0001D0200001D0200001D0200001D020000D4
:1000B0001D0200001D0200001D0200001D020000C4
:1000C00000F002F800F043F80CA030C808382418FB
:1000D0002D18A246671EAB4654465D46AC4201D180
:1000E00000F035F87E460F3E0FCCB646012633426F
:1000F00000D0FB1AA246AB4633431847680C0000F9
:10010000880C0000103A02D378C878C1FAD8520798
:1001100001D330C830C101D504680C6070470000BD
:100120000023002400250026103A01D378C1FBD813
:10013000520700D330C100D50B60704710B50020C6
:1001400010BD1FB5C046C0461FBD10B510BD00F0A4
:10015000C7FD1146FFF7F5FF00F01CF800F0DFFDCA
:1001600003B4FFF7F2FF03BC00F0E4FD10B500F0AC
:10017000D9FA00F0E1FB00F033F9E120000200F0D1
:100180000DFB00F08FF900F0BEF900F0EDF900F082
:100190008FF810BDFFF7EAFF0FA000F01BFC10481E
:1001A00000F013FAFF27F5370E4C0F4E00253846A6
:1001B00000F072FA0121002000F037F920880028B1
:1001C00002D0258000F076F83078012800D1357013
:1001D00000F0EEFBEBE7000068656C6C6F0D0A0049
:1001E00050C3000004000020000000200F48104908
:1001F00001601049016010490160104A1049116006
:10020000104A1149116000210160104880471048D0
:100210000047FEE7FEE7FEE7FEE7FEE7FEE7000039
:100220000C480D490B4A0D4B70470000000100506F
:100230005900000016000000880000002400005053
:10024000A55A0000800300501F0000006D0100004F
:10025000C100000070000020700400207000002029
:100260001048592101601621016088210160704702
:100270000C490020086070470B48016A0213914343
:100280000162704700B5FFF7EBFF084801074862BD
:1002900000BD00B5FFF7E4FF002005210907486213
:1002A00000BD00000001005000020050A55A0000EF
:1002B000704770477047704770477047704700003D
:1002C000F0B5774D764E764F403580360123C037F6
:1002D000734C8B40012A0DD0002A0AD1002829D066
:1002E00001282BD002282DD0032802D1B8689843CA
:1002F000B860F0BD00280BD001280FD0022813D021
:100300000328F6D1B8689843B860B8681843EFE797
:10031000A0689843A060A06818430DE0A8689843BF
:10032000A860A86818430BE0B0689843B060B06854
:10033000184309E0A0689843A060F0BDA8689843FE
:10034000A860F0BDB0689843B060F0BDF0B503237D
:100350004D00AB40524D524E514F514C40358036BE
:10036000C037012A0DD0002A0AD100282CD001283C
:100370002ED0022830D0032802D138689843386044
:10038000F0BD012249008A4000280BD001280FD07F
:10039000022813D00328F3D13868984338603868AE
:1003A0001043ECE7206898432060206810430DE07C
:1003B000286898432860286810430BE03068984309
:1003C00030603068104309E0206898432060F0BD39
:1003D000286898432860F0BD306898433060F0BDCD
:1003E00000B5002101220846FFF7B0FF01221146A7
:1003F0000020FFF7ABFF012202210020FFF7A6FF3C
:10040000012203210020FFF7A1FF01220421002087
:10041000FFF79CFF012205210020FFF797FF012233
:1004200011460020FFF74CFF00BD002806D0012830
:1004300006D0022810D0032808D110E0184A01E0A5
:10044000174A40329268CA40D207D20F012A09D017
:10045000002A09D1012233E7114A8032F2E7104A1B
:10046000C032EFE70022F6E77047002807D00128E6
:1004700007D0022808D0032809D000207047084878
:1004800007E00748403004E00548803001E00448B8
:10049000C0300069C840C007F0D00120704700009C
:1004A0000040005010B5FFF7DBFE9648826804213B
:1004B0000A438260426907231B029A430B02D21847
:1004C000426105200007C2680A43C260C2688A43CD
:1004D000C2608D4801680322D20691430160016821
:1004E000C202114301600168090A09020160016842
:1004F00042031143016085480168521511430160B0
:10050000FFF7B6FE10BD10B5FFF7AAFE7D48826862
:1005100008210A438260426907231B039A4343016F
:10052000D218426105200007C2680A43C260C2684F
:100530008A43C2607448016A0322D2069143016271
:10054000016AC20211430162016A090A09020162D9
:10055000016A4203114301626C480168121511439C
:100560000160FFF785FE10BD10B5FFF779FE654805
:10057000826810210A438260426907231B049A4360
:100580004302D218426105200007C2680A43C260D4
:10059000C2688A43C2605E4801680322D206914362
:1005A000016001685A02114301600168090A0902E9
:1005B0000160016842031143016054480168D2148C
:1005C00011430160FFF754FE10BD524A0021118013
:1005D000162148434C49486008688A021043086065
:1005E00008688A031043086070474A4A0021518016
:1005F0001621484344494862086A8A021043086247
:10060000086A8A03104308627047424A00219180B9
:10061000162148433E49486008680122920610436B
:10062000086008688A03104308607047364801680C
:1006300082021143016001688203914301603549E0
:100640000020088070473048016A8202114301622D
:10065000016A8203914301622E490020488070475D
:100660002B48016801229206114301600168820350
:100670009143016027490020888070471621484334
:1006800025494861002088610869012210430861FA
:100690000869C003FCD57047204948431E4948619A
:1006A0000020886108690122104308610869C003BD
:1006B000FCD5704710B5144881680124214381603E
:1006C00014490888401C80B208803C2100F02CFAB4
:1006D000002901D11248047010BD0B48816A012223
:1006E000114381620B494888401C48807047084884
:1006F000816801221143816006498888401C8880F6
:1007000070470000000200500000014000E100E0DE
:10071000000011400200002000E000E0F055000061
:100720000000002010B5FFF79BFD0B480168042274
:1007300011430160C168C906FCD501680822114354
:100740000160C1680907FCD50169072211430161F5
:10075000FFF78EFD10BD0000000200500E498A69AF
:100760005202FCD508600A2804D188694002FCD5F1
:100770000D2008607047084881694904FCD400686E
:10078000C0B27047EAE700B5FFF7E8FF002000BD00
:10079000F1E70020C04370470000054070B5052216
:1007A0001207D16B5C4B1940D163D16B03252943F0
:1007B000D1635A4B9968DC012143996059692E062F
:1007C0003143596199690F263602B1439961D16865
:1007D0002143D160D368A343D360514CA268042164
:1007E0000A43A260A26802231A43A260E2680823B7
:1007F0009A43E260E268AA43E260E2682A43E26068
:10080000E2688A43E260616A2A0711436162014635
:10081000444800F089F9616A801E0843606260689C
:10082000012108436060404801680122120311431E
:1008300001603E490020088070BD70B50522120796
:10084000516B3B4B19405163516B03239B0219437E
:100850005163324B99681C02214399605969032501
:100860002D062943596199690F252D02A9439961E4
:10087000D1682143D160D168A143D1602D4CA168DA
:1008800004221143A160A16802231943A160E16819
:1008900008239943E160E16889088900E160E36821
:1008A00003210B43E360E1689143E160616A032245
:1008B00012071143616201461A4800F035F9616A76
:1008C000801E08436062606801210843606016482A
:1008D000016801225203114301601449002048803D
:1008E00070BD10B500220E4B05E0845C1C609C6955
:1008F0006402FCD5521C8A42F7D310BD10B5002209
:100900000C4B05E0845C1C609C696402FCD5521CA5
:100910008A42F7D310BD0000FCFCFFFF000200502C
:100920000000054080B14F0100E100E00C00002014
:10093000F3F3FFFF0000154010B5FFF791FC2248CC
:10094000816801242143816041690322114341618F
:100950001E48026802210A430260026807231B0244
:100960009A430260026803235B021A430260026832
:1009700040231A430260164A13680B431360016850
:10098000802211430160016821430160FFF770FC80
:1009900010BD10B5FFF764FC0C480168202211431C
:1009A00001600168082211430160FFF761FC10BD7E
:1009B00010B5FFF755FC054801680122114301609D
:1009C000FFF756FC10BD0000000200500040004040
:1009D00000E100E00FB4054910B503AA029800F049
:1009E00053F910BC08BC04B01847000008000020F0
:1009F000F3B50446002081B090E0E16820468847C6
:100A000000287DD0252802D06268A16883E0454F88
:100A100000257F442046E16888472028064608DBF9
:100A2000312E06D2B81920380078002801D00543AD
:100A3000F0E7A80701D5042085430020E0610746C0
:100A4000A0612A2E0AD0304600F07BF9002827D07A
:100A5000303EB80000190090866119E00298BA0093
:100A6000121902C8916102902046E1688847012F5F
:100A7000064617D1E06900281FDA202085431CE0D4
:100A800000980A21806948430099801930388861AC
:100A90002046E1688847064600F053F90028EFD168
:100AA000012F0AD02E2E08D12046E168884706463D
:100AB000202005437F1C022FC3DBA069002803DA36
:100AC0004042A06101200543E80701D01020854382
:100AD000002E25D030464138192803D80120C00205
:100AE00005432036204625603146029A1546FFF719
:100AF00025FB00280CD0012807D0ED1DE80800E0F8
:100B00000EE0C0000830029077E72D1D029574E7D3
:100B100062683046A1689047206A401C20626CE7FA
:100B2000206AFEBD3A030000002203098B422CD349
:100B3000030A8B4211D300239C464EE003460B432D
:100B40003CD4002243088B4231D303098B421CD38F
:100B5000030A8B4201D394463FE0C3098B4201D381
:100B6000CB01C01A524183098B4201D38B01C01AB9
:100B7000524143098B4201D34B01C01A5241030930
:100B80008B4201D30B01C01A5241C3088B4201D3DF
:100B9000CB00C01A524183088B4201D38B00C01A8C
:100BA000524143088B4201D34B00C01A5241411AB3
:100BB00000D201465241104670475DE0CA0F00D096
:100BC0004942031000D34042534000229C4603098F
:100BD0008B422DD3030A8B4212D3FC22890112BA15
:100BE000030A8B420CD3890192118B4208D38901ED
:100BF00092118B4204D389013AD0921100E0890905
:100C0000C3098B4201D3CB01C01A524183098B42E5
:100C100001D38B01C01A524143098B4201D34B01CE
:100C2000C01A524103098B4201D30B01C01A524131
:100C3000C3088B4201D3CB00C01A524183088B42B8
:100C400001D38B00C01A5241D9D243088B4201D341
:100C50004B00C01A5241411A00D20146634652412C
:100C60005B10104601D34042002B00D5494270472B
:100C700063465B1000D3404201B50020C046C04629
:100C800002BD704770477047084B70B50C467B44F7
:100C900000F013F805462046FFF77BFD002802D040
:100CA0000020C04370BD284670BD0000F5FAFFFF6C
:100CB00001694A1C02610878704700B58FB0029143
:100CC000002105910549019379440391114604904F
:100CD0006846FFF78DFE0FB000BD0000E5FFFFFF87
:100CE000754600F023F8AE46050069465346C00835
:100CF000C000854618B020B5FFF792FA60BC002707
:100D00004908B6460026C0C5C0C5C0C5C0C5C0C5D7
:100D1000C0C5C0C5C0C5403D49008D4670470446AA
:100D2000C046C0462046FFF71BFA00000048704747
:100D30001000002001491820ABBEFEE7260002008B
:100D4000704730380A2801D20120704700207047D0
:100D50000400000800000000000000020001000084
:100D600010000000840D00000000002010000000B2
:100D700004010000940D0000100000206004000039
:100D80002001000000000000000000000000000042
:040D9000000000005F
:04000005000001ED09
:00000001FF
