:020000040000FA
:10000000A0080020E90100000F020000110200001A
:1000100000000000000000000000000000000000E0
:1000200000000000000000000000000013020000BB
:100030000000000000000000150200001702000090
:1000400019020000CF0A0000FB0D00001902000099
:100050001902000019020000190200001902000034
:10006000B1060000C5060000D90600001902000014
:100070001902000019020000190200001902000014
:100080001902000019020000190200001902000004
:1000900019020000190200001902000019020000F4
:1000A00019020000190200001902000019020000E4
:1000B00019020000190200001902000019020000D4
:1000C00000F002F800F043F80CA030C808382418FB
:1000D0002D18A246671EAB4654465D46AC4201D180
:1000E00000F035F87E460F3E0FCCB646012633426F
:1000F00000D0FB1AA246AB4633431847F411000068
:1001000014120000103A02D378C878C1FAD8520706
:1001100001D330C830C101D504680C6070470000BD
:100120000023002400250026103A01D378C1FBD813
:10013000520700D330C100D50B60704710B50020C6
:1001400010BD1FB5C046C0461FBD10B510BD01F0A3
:100150008DF81146FFF7F5FF00F01CF801F0A5F847
:1001600003B4FFF7F2FF03BC01F0AAF810B500F0EA
:10017000CBFA00F07FFC00F031F9E120000200F042
:10018000ABFB00F08DF900F0BCF900F0EBF900F0EA
:100190008DF810BD0024FFF7E9FF0EA000F0E0FE8F
:1001A0000E4800F010FA204600F0B5FE0C4D002677
:1001B0000C4F00F080FE2888002804D0641C2E809C
:1001C000204600F0A8FE3888002800D03E8000F0CD
:1001D0008DFCEEE768656C6C6F0D0A0050C3000083
:1001E00000000020020000200F4810490160104963
:1001F000016010490160104A10491160104A11490C
:100200001160002101601048804710480047FEE758
:10021000FEE7FEE7FEE7FEE7FEE700000C480D49BB
:100220000B4A0D4B704700000001005059000000C0
:10023000160000008800000024000050A55A0000AD
:10024000800300501F0000006D010000C10000008D
:10025000A0040020A0080020A0040020104859217C
:100260000160162101608821016070470C4900205F
:10027000086070470B48016A02139143016270479E
:1002800000B5FFF7EBFF08480107486200BD00B565
:10029000FFF7E4FF002005210907486200BD0000C8
:1002A0000001005000020050A55A0000704770473E
:1002B000704770477047704770470000F0B5774D42
:1002C000764E764F403580360123C037734C8B40D5
:1002D000012A0DD0002A0AD1002829D001282BD0CC
:1002E00002282DD0032802D1B8689843B860F0BD29
:1002F00000280BD001280FD0022813D00328F6D1F4
:10030000B8689843B860B8681843EFE7A0689843A6
:10031000A060A06818430DE0A8689843A860A8688A
:1003200018430BE0B0689843B060B068184309E028
:10033000A0689843A060F0BDA8689843A860F0BD8D
:10034000B0689843B060F0BDF0B503234D00AB40FA
:10035000524D524E514F514C40358036C037012AD4
:100360000DD0002A0AD100282CD001282ED0022836
:1003700030D0032802D1386898433860F0BD01229C
:1003800049008A4000280BD001280FD0022813D042
:100390000328F3D138689843386038681043ECE795
:1003A000206898432060206810430DE02868984337
:1003B0002860286810430BE030689843306030684C
:1003C000104309E0206898432060F0BD28689843F6
:1003D0002860F0BD306898433060F0BD00B5002162
:1003E00001220846FFF7B0FF012211460020FFF767
:1003F000ABFF012202210020FFF7A6FF012203210B
:100400000020FFF7A1FF012204210020FFF79CFF3D
:10041000012205210020FFF797FF0122114600204D
:10042000FFF74CFF00BD002806D0012806D00228A7
:1004300010D003280CD110E0184A01E0174A4032CE
:100440009268CA40D207D20F012A09D0002A09D1E6
:10045000012233E7114A8032F2E7104AC032EFE757
:100460000022F6E77047002807D0012807D00228AD
:1004700008D0032809D000207047084807E0074843
:10048000403004E00548803001E00448C030006995
:10049000C840C007F0D00120704700000040005065
:1004A00010B5FFF7DBFE9148826804210A438260A1
:1004B000426907231B029A430B02D21842610520AE
:1004C0000007C2680A43C260C2688A43C2608848A3
:1004D00001680322D206914301600168C202114300
:1004E00001600168090A09020160016842031143C1
:1004F000016080480168521511430160FFF7B6FEA4
:1005000010BD10B5FFF7AAFE7848826808210A439B
:100510008260426907231B039A434301D218426158
:1005200005200007C2680A43C260C2688A43C260ED
:100530006F48016A0322D20691430162016AC20236
:1005400011430162016A090A09020162016A420358
:100550001143016267480168121511430160FFF7FA
:1005600085FE10BD10B5FFF779FE60488268102146
:100570000A438260426907231B049A434302D2184C
:10058000426105200007C2680A43C260C2688A430C
:10059000C260594801680322D20691430160016894
:1005A0005A02114301600168090A090201600168E9
:1005B0004203114301604F480168D21411430160A6
:1005C000FFF754FE10BD4D4A00211180162148430B
:1005D0004749486008688A021043086008688A032F
:1005E000104308607047454A002151801621484356
:1005F0003F494862086A8A0210430862086A8A030F
:100600001043086270473D4A0021918016214843FB
:10061000394948600868012292061043086008685A
:100620008A03104308607047314801688202114311
:100630000160016882039143016030490020088015
:1006400070472B48016A820211430162016A8203EA
:10065000914301622949002048807047264801687B
:1006600001229206114301600168820391430160F7
:10067000224900208880704716214843204948615C
:100680000020886108690122104308610869C003DD
:10069000FCD570471B4948431949486100208861CF
:1006A00008690122104308610869C003FCD570473E
:1006B0000F48816801221143816010490888401C5D
:1006C000088070470A48816A0122114381620B4900
:1006D0004888401C488070470748816801221143C0
:1006E000816006498888401C88807047000200505D
:1006F0000000014000E100E0000011400000002087
:1007000000E000E0F055000010B5FFF7A7FD0B4832
:100710000168042211430160C168C906FCD5016863
:10072000082211430160C1680907FCD5016907224D
:1007300011430161FFF79AFD10BD00000002005057
:100740000E498A695202FCD508600A2804D18869DA
:100750004002FCD50D2008607047084881694904B3
:10076000FCD40068C0B27047EAE700B5FFF7E8FFC5
:10077000002000BDF1E70020C043704700000540A5
:1007800010B5FFF76BFD05200007016B4F4A1140C4
:100790000163016B07225203114301634C498868CE
:1007A0000A01104388604B488368042293438360A6
:1007B00003680415A34303600368C414A3430360E0
:1007C000036813430360026802239A4302608A6944
:1007D000120912018A614168090C090441604168EB
:1007E00001221143416001689204914301608168D4
:1007F000082291438160FFF739FD10BD20282DD8D4
:10080000C30708223349002B0B6808D013430B6041
:1008100082071023002A0A6803DB9A4302E093430D
:10082000F5E71A430A6042072023002A0A6801DB21
:100830009A4300E01A430A6003074022002B0B682A
:1008400001DB934300E013430B60C2068020002AC3
:100850000A6801DB824300E002430A60704770B51A
:100860001C4C0646A06801252843A0602068A115FD
:10087000884320600820FFF7C1FF266220682843D4
:1008800020602068C007FCD1A06840084000A0603C
:1008900070BD30B50F4CA06801252843A0602068CA
:1008A000A115884320600820FFF7A8FFFF202062E1
:1008B0002068284320602068C007FCD1A068400859
:1008C0004000A0602069C0B230BD00001F1FFFFFC4
:1008D000000200500040034070B505221207D16BA2
:1008E0005C4B1940D163D16B03252943D1635A4B2B
:1008F0009968DC012143996059692E063143596199
:1009000099690F263602B1439961D1682143D160BC
:10091000D368A343D360514CA26804210A43A26068
:10092000A26802231A43A260E26808239A43E260A5
:10093000E268AA43E260E2682A43E260E2688A432E
:10094000E260616A2A07114361620146444800F08F
:10095000B1FB616A801E0843606260680121084340
:1009600060604048016801221203114301603E4962
:100970000020088070BD70B505221207516B3B4BFB
:1009800019405163516B03239B0219435163324B4E
:1009900099681C0221439960596903252D06294352
:1009A000596199690F252D02A9439961D1682143A5
:1009B000D160D168A143D1602D4CA16804221143BC
:1009C000A160A16802231943A160E168082399434B
:1009D000E160E16889088900E160E36803210B4375
:1009E000E360E1689143E160616A03221207114309
:1009F000616201461A4800F05DFB616A801E08438F
:100A00006062606801210843606016480168012245
:100A100052031143016014490020488070BD10B595
:100A200000220E4B05E0845C1C609C696402FCD5CE
:100A3000521C8A42F7D310BD10B500220C4B05E0C2
:100A4000845C1C609C696402FCD5521C8A42F7D30A
:100A500010BD0000FCFCFFFF00020050000005403C
:100A600080B14F0100E100E00C000020F3F3FFFF34
:100A70000000154010B5FFF7F1FB22488168012402
:100A80002143816041690322114341611E4802688C
:100A900002210A430260026807231B029A43026094
:100AA000026803235B021A430260026840231A4370
:100AB0000260164A13680B431360016880221143D9
:100AC0000160016821430160FFF7D0FB10BD10B544
:100AD000FFF7C4FB0C480168202211430160016844
:100AE000082211430160FFF7C1FB10BD10B5FFF7ED
:100AF000B5FB05480168012211430160FFF7B6FB11
:100B000010BD0000000200500040004000E100E085
:100B100070B50C46D94D00212961FFF7A0FEFFF703
:100B2000B8FE20700120286170BD70B50D46D34C11
:100B30000021216180210843FFF791FE2846FFF73D
:100B40008EFE0120206170BD08B505210720FFF74A
:100B5000ECFF03210520FFF7E8FF00210620FFF747
:100B6000E4FF69460320FFF7D3FF69460420FFF73F
:100B7000CFFFC3490120487008BD08B501210720F7
:100B8000FFF7D3FF00210520FFF7CFFF002106204C
:100B9000FFF7CBFF69460320FFF7BAFF6946042041
:100BA000FFF7B6FF08BDF8B50E460546B44900206C
:100BB000487031463E20FFF7B8FF002405E0295D6C
:100BC0007F20FFF7B2FF641CE4B2B442F7D30421E4
:100BD0000520FFF7AAFF00210620FFF7A6FF6946C0
:100BE0000320FFF795FF69460420FFF791FF0921D5
:100BF0000720FFF79AFFA1484030816A0029FCD105
:100C000069460320FFF784FF69460420FFF780FF51
:100C1000FFF79AFFF8BD10B5FFF720FB0521090784
:100C2000C86B984A1040001DC8639448803801681A
:100C30002022914301600168102291430160016804
:100C40000822114301609048426904210A4342612D
:100C500082698A438261C2690A43C2618B48026821
:100C60000A430260FFF702FB854800210170012161
:100C7000417010BDF8B5054680490326002080313B
:100C800048601420FFF706FD69460320FFF740FF88
:100C900069460420FFF73CFF80210720FFF745FF4E
:100CA000764C4034A06A0028FCD169460320FFF747
:100CB0002FFF69460420FFF72BFFA06A0028FCD114
:100CC00069460320FFF724FF69460420FFF720FF51
:100CD000700034186A4E7520B61C315DFFF725FF91
:100CE000A41961787620FFF720FFA1787720FFF71D
:100CF0001CFF1420454334462134615D6E20FFF70C
:100D000014FF2C1961786F20FFF70FFFA178702076
:100D1000FFF70BFF21797220FFF707FFA1791C2055
:100D2000FFF703FFE1792020FFF7FFFE217A212062
:100D3000FFF7FBFE617A2220FFF7F7FEA17A23205E
:100D4000FFF7F3FEE17A2420FFF7EFFE217B252059
:100D5000FFF7EBFE617B1D20FFF7E7FEA17B1E2066
:100D6000FFF7E3FEE17B2A20FFF7DFFE0A213420B4
:100D7000FFF7DBFE2A213520FFF7D7FE02213320C3
:100D8000FFF7D3FE2D213620FFF7CFFED4213720E9
:100D9000FFF7CBFE8D213020FFF7C7FE0021322068
:100DA000FFF7C3FE63217120FFF7BFFE12210B2066
:100DB000FFF7BBFE15210C20FFF7B7FED721092056
:100DC000FFF7B3FE60216920FFF7AFFE1E216D2003
:100DD000FFF7ABFE01210820FFF7A7FE0021082046
:100DE000FFF7A3FE02210820FFF79FFE0021082045
:100DF000FFF79BFEFFF70FFFF8BDFEB52248002569
:100E0000016A01621E4E7078002835D069460320C1
:100E1000FFF77EFE6846007880072DD501A94B209C
:100E2000FFF776FE1A4CE71FF93F14E069467F2072
:100E3000FFF76EFE2078FF21401C00F03BF9217087
:100E400068460078217878548F2802D13078401C89
:100E500030706D1CEDB2684600798542E6D321788A
:100E60000B482038C07FFF22101A0818114600F0E6
:100E700021F96170FFF768FEFEBD000000420050DE
:100E800010000020FBFBFFFFC040005000E100E02D
:100E90000804002030B500212F4A0C4601250346E6
:100EA000CB40DB07DB0F136155615461491CC9B2AC
:100EB0000729F4D930BDF8B5274C002565612560B8
:100EC000264E3178301D405CFFF7E4FF256001209D
:100ED000FFF7E0FB012727607178301D405CFFF7CA
:100EE000D9FF65600120FFF7D5FB6760B178301D41
:100EF000405CFFF7CFFFA5600120FFF7CBFBA760A9
:100F0000F178301D405CFFF7C5FFE5600120FFF779
:100F1000C1FBE760F8BD70B57D21C90000F0CAF8DB
:100F20000E4C0D4620702846642100F0C3F8607016
:100F30002846642100F0BEF808460A2100F0BAF8FD
:100F4000A0702846642100F0B5F808460A2100F098
:100F5000B1F8E17070BD000000420050E7000020D1
:100F60000FB4054910B503AA029800F053F910BC5C
:100F700008BC04B01847000008000020F3B5044680
:100F8000002081B090E0E1682046884700287DD0AD
:100F9000252802D06268A16883E0454F00257F4480
:100FA0002046E16888472028064608DB312E06D215
:100FB000B81920380078002801D00543F0E7A807C9
:100FC00001D5042085430020E0610746A0612A2E58
:100FD0000AD0304600F07BF9002827D0303EB80018
:100FE00000190090866119E00298BA00121902C82F
:100FF000916102902046E1688847012F064617D18B
:10100000E06900281FDA202085431CE000980A21AF
:101010008069484300998019303888612046E1682A
:101020008847064600F053F90028EFD1012F0AD077
:101030002E2E08D12046E168884706462020054329
:101040007F1C022FC3DBA069002803DA4042A061A5
:1010500001200543E80701D010208543002E25D04C
:1010600030464138192803D80120C00205432036F4
:10107000204625603146029A1546FFF75FF80028A2
:101080000CD0012807D0ED1DE80800E00EE0C000FC
:101090000830029077E72D1D029574E762683046AC
:1010A000A1689047206A401C20626CE7206AFEBD60
:1010B0003A030000002203098B422CD3030A8B421F
:1010C00011D300239C464EE003460B433CD4002240
:1010D00043088B4231D303098B421CD3030A8B4252
:1010E00001D394463FE0C3098B4201D3CB01C01A20
:1010F000524183098B4201D38B01C01A52414309EB
:101100008B4201D34B01C01A524103098B4201D3D8
:101110000B01C01A5241C3088B4201D3CB00C01A45
:10112000524183088B4201D38B00C01A52414308BD
:101130008B4201D34B00C01A5241411A00D20146E2
:101140005241104670475DE0CA0F00D0494203107B
:1011500000D34042534000229C4603098B422DD3CA
:10116000030A8B4212D3FC22890112BA030A8B4272
:101170000CD3890192118B4208D3890192118B42C1
:1011800004D389013AD0921100E08909C3098B4246
:1011900001D3CB01C01A524183098B4201D38B0189
:1011A000C01A524143098B4201D34B01C01A52412C
:1011B00003098B4201D30B01C01A5241C3088B4271
:1011C00001D3CB00C01A524183088B4201D38B005C
:1011D000C01A5241D9D243088B4201D34B00C01AE6
:1011E0005241411A00D20146634652415B101046FB
:1011F00001D34042002B00D54942704763465B1043
:1012000000D3404201B50020C046C04602BD704731
:1012100070477047084B70B50C467B4400F013F8DC
:1012200005462046FFF7A7FA002802D00020C04359
:1012300070BD284670BD00004DF5FFFF01694A1CD6
:1012400002610878704700B58FB0029100210591C6
:101250000549019379440391114604906846FFF7CC
:101260008DFE0FB000BD0000E5FFFFFF754600F0EA
:1012700023F8AE46050069465346C008C0008546BF
:1012800018B020B5FEF7CAFF60BC00274908B64673
:101290000026C0C5C0C5C0C5C0C5C0C5C0C5C0C585
:1012A000C0C5403D49008D4670470446C046C04613
:1012B0002046FEF755FF000000487047400400201C
:1012C00001491820ABBEFEE7260002007047303807
:1012D0000A2801D20120704700207047040000084E
:1012E00000000000000000020001000010000000EB
:1012F00010130000000000200401000004010000A1
:1013000014140000040100209C07000020010000CC
:1013100000000000000000000000000000000000CD
:101320000000534B0053000052AF0053960052642C
:101330000053E10051E100521900534B00543200B8
:10134000547D004EA52C8048231ED0009D490045A9
:101350003C02FF036000009D492C804823AB9C00A9
:10136000D1B700B53C02FF0360000007AE0C804817
:1013700023AC640147AE01B73C02FF0360000009E3
:10138000D50C804823AD4E01A36E02CF3C02FF0373
:101390006000000C4A0C804823947D010625023130
:1013A0003C02FF036000000EBF0C804823956801DB
:1013B0003A9303293C02FF036000001D7E0CC048E5
:1013C000239A3402752507FF3C02FF0360000000EA
:1013D000000000000000000000000000000000000D
:1013E00000000000000000000000000000000000FD
:1013F0000000000000000001020304039F250D9976
:1014000049411F010911C16385617191E313833162
:04141000C5FDFFFF18
:04000005000001E90D
:00000001FF
